:020000040800F2
:100000007806002089010008F10B0008E90B0008C0
:10001000ED0B000891020008050C0008000000002C
:10002000000000000000000000000000F90B0008C4
:100030009502000800000000F50B0008FD0B000809
:10004000A3010008A3010008A3010008A301000800
:10005000A3010008A3010008A3010008A3010008F0
:10006000A3010008A3010008A3010008A3010008E0
:10007000A3010008A3010008A3010008A3010008D0
:10008000A3010008A3010008A3010008A3010008C0
:10009000A3010008A3010008A3010008A3010008B0
:1000A000A3010008A3010008A3010008A3010008A0
:1000B000A3010008A3010008A3010008A301000890
:1000C000A3010008A3010008A3010008A301000880
:1000D000A3010008A3010008A3010008A301000870
:1000E000A3010008A3010008A301000800F002F822
:1000F00000F03AF80AA090E8000C82448344AAF188
:100100000107DA4501D100F02FF8AFF2090EBAE885
:100110000F0013F0010F18BFFB1A43F0010318473B
:10012000D8110000F8110000103A24BF78C878C137
:10013000FAD8520724BF30C830C144BF04680C60ED
:10014000704700000023002400250026103A28BF35
:1001500078C1FBD8520728BF30C148BF0B60704739
:100160001FB51FBD10B510BD00F058F81146FFF7C0
:10017000F7FF00F049FD00F076F803B4FFF7F2FF57
:1001800003BC00F07DF8000009488047094800479B
:10019000FEE7FEE7FEE7FEE7FEE7FEE7FEE7FEE737
:1001A000FEE7FEE704480549054A064B7047000094
:1001B000010C0008ED0000087800002078060020FF
:1001C00078020020780200204FF0000200B51346AC
:1001D00094469646203922BFA0E80C50A0E80C5067
:1001E000B1F12001BFF4F7AF090728BFA0E80C5018
:1001F00048BF0CC05DF804EB890028BF40F8042B11
:1002000008BF704748BF20F8022B11F0804F18BF7D
:1002100000F8012B7047704770477047754600F033
:100220002BF8AE4605006946534620F00700854688
:1002300018B020B5FFF7B6FFBDE820404FF000062C
:100240004FF000074FF000084FF0000BAC46ACE851
:10025000C009ACE8C009ACE8C009ACE8C00921F0AD
:1002600007018D46704710B50446AFF30080204665
:10027000BDE81040FFF781BF004870471000002024
:1002800001491820ABBEFEE72600020070470000BF
:10029000FEE7000070470000B0B5044600F02AF900
:1002A000054640F20000C2F200000078611C18BF51
:1002B000044400BF00F01EF9401BA042FAD3B0BDB9
:1002C0002DE9F04F82B00E68002E00F0038141F25C
:1002D0000042C4F20102042340F2004E904208BFE3
:1002E00003234FF6FF7CC4F2010E00930024012388
:1002F000C1F2100C4FF0000A4FF0000949E000BFB6
:10030000012704F00C030F229A402BEA020207FA9D
:1003100003F34FEA9A051A4346F82520D1F804B0B2
:1003200040F20C455FEACB22DEF8082054BF22EAF7
:10033000080242EA0802C4F20105CEF808202A6841
:100340005FEA8B2354BF22EA080242EA08022A60CD
:100350005FEA8B33DEF8042054BF22EA080242EA47
:1003600008025FEACB33CEF80420DEF800204FF01D
:10037000010354BF22EA080242EA0802CEF8002034
:100380000E680AF1010A36FA0AF204F1040400F0D8
:10039000A18003FA0AF816EA080FF1D04E68664504
:1003A00012DC122E56D8DFE806F0350B45495555BC
:1003B00055555555555555555555554D510000BF39
:1003C000D1F80C9046E000BF4FF6FF72C1F2210257
:1003D00096420FDC0022C1F2110296421AD000228E
:1003E000C1F21202964215D00022C1F221029642B9
:1003F00010D02FE00022C1F2220296420AD0002241
:10040000C1F23102964205D00022C1F23202964278
:1004100020D100BF8A684AB1012A14BFC0F81480F5
:10042000C0F810804FF0080914E000BF4FF0040935
:1004300010E000BFCA6802F108090BE04FF00009A4
:1004400008E000BFCA6802F1040903E0CA6802F1CB
:100450000C0900BF22460646BAF1080F24BF203A15
:10046000043637680F25954027EA050509FA02F298
:100470002A433260CA79D2067FF582AF41F218036F
:10048000C4F202031A68AEF57E7642F001021A60E9
:100490001A6802F001020192019A2AF0030256F84A
:1004A00002B040F60002C4F20102904210D040F6C1
:1004B0000042C4F2010290423FF422AF41F2000236
:1004C000C4F20102009F904208BF022719E700BF53
:1004D000002716E702B0BDE8F08F000080680840F2
:1004E00018BF012070470000002A08BF09040161FD
:1004F0007047000040F27400C2F2000000687047CC
:1005000040F2000040F27401C2F20000C2F20001A9
:1005100000780A68104408607047000080B542F215
:100520000000C4F20200016841F0100101600320E4
:1005300000F07AF80F2000F005F800F027F800200E
:1005400080BD000070B540F20006C2F2000640F225
:1005500008013278C2F200014FF47A730968B3FBE4
:10056000F2F20446B1FBF2F1084600F027FB0F2C33
:100570004FF0010508D838B94FF0FF30214600226E
:10058000002500F025F87460284670BD82B041F265
:100590001800C4F202000168022241F0010101606A
:1005A000016801F0010101910199416841F0805118
:1005B0004160406800F08050009000980420C4F230
:1005C0000100016862F31A61016002B07047000027
:1005D00010B54EF60C5CCEF2000CDCF80030C3F324
:1005E000022E8EF00704042C28BF0424BEF103035E
:1005F0004FF0FF3E0EFA04F438BF0023A1439940A8
:100600000EFA03F39A43114300F00F0200F1604326
:100610000901043A03F564436244002848BF02F12B
:100620000C03197010BD00004EF60C51CEF2000103
:100630000A684FF6FF031A4060F30A2242F0806016
:1006400040F0FD70086070472DE9F04381B000284C
:1006500000F0858042F20008C4F202080446D8F88F
:1006600000000D4600F0070088420CD2D8F80000C8
:1006700020F007002843C8F80000D8F8000000F078
:100680000700A8426BD1206841F204098107C4F237
:10069000020917D5410705D5D9F8001041F4E061EA
:1006A000C9F80010010705D5D9F8001041F46051D0
:1006B000C9F80010D9F80010A26821F0F001114328
:1006C000C9F80010C00741D1D8F8000000F00700B9
:1006D000A8420CD9D8F8000020F007002843C8F839
:1006E0000000D8F8000000F00700A84237D12068C9
:1006F000410707D5D9F80010E26821F4E061114301
:10070000C9F80010000708D5D9F80000216920F4C5
:10071000605040EAC100C9F80000D9F8002002F09A
:100720000C00082841F20020C0F27A0050D141F2BA
:10073000E823C2F38341C0F60003595CD2033BD4E3
:1007400040F60010C0F23D00484341E060680228D6
:100750000AD001282AD159F8041C890308D40120A1
:1007600001B0BDE8F08300BF59F8041C8901F6D53B
:10077000D9F8001021F003010843C9F80000FFF781
:10078000B9FE064641F28837D9F80000616800F0EA
:100790000C00B0EB810F97D0FFF7ACFE801BB84286
:1007A000F2D9032001B0BDE8F08300BF59F8041C62
:1007B0008907D4D5DCE700BFD9F8002041F2E62351
:1007C000C2F34042C0F600039A5C4843B0FBF2F02B
:1007D000D9F8001041F2D622C1F30311C0F600028D
:1007E000515C40F2080220FA01F140F20400C2F22A
:1007F00000000068C2F200021160FFF7A3FE0020B3
:1008000001B0BDE8F08300002DE9F04182B000287E
:1008100068D00446007841F20006C007C4F2020620
:1008200025D0706800F00C0004281BD0706800F020
:100830000C00082802D17068C00313D46068002837
:1008400000F06881B0F5A02F00F07C81B0F5803F0A
:1008500000F07C81306820F480303060306820F413
:10086000802076E13068800301D56068D0B32078BD
:10087000800718D5706810F00C0F07D0706800F072
:100880000C0008286ED17068C0036BD430688007F4
:1008900002D52069012825D13068616920F0F8006F
:1008A00040EAC1003060207800071FD4207840075C
:1008B00032D4E56995B1706800F00C00082840F06A
:1008C0008F80012D0ED07068216A00F480328A4238
:1008D00008D1616A00F47010884203D1002002B090
:1008E000BDE8F081012002B0BDE8F081A0690028D8
:1008F00062D00020C4F242200121C0F88014FFF72A
:10090000F9FD0546706A800700F18C80FFF7F2FD63
:10091000401B0228F6D92AE1F06910F0805808D16E
:10092000F06940F08050F061F06900F08050009074
:10093000009847F20007C4F200073868C00529D4C0
:10094000386840F480703860FFF7D4FD054600BF7A
:100950003868C0051ED4FFF7CDFD401B6428F7D9C9
:1009600005E100BF2069002840F20000C4F24220E7
:1009700000F0828001210160FFF7BCFD054600BF49
:10098000306880073FF588AFFFF7B4FD401B0228B1
:10099000F6D9ECE0E068002800F08080052800F03F
:1009A0009780012800F09880306A20F001003062C2
:1009B000306A20F0040092E00020C4F242200021BE
:1009C000C0F88014FFF796FD054600BF706A8007E7
:1009D0007FF56CAFFFF78EFD401B0228F6D9C6E00D
:1009E0000027C4F2422700203866FFF783FD022D5E
:1009F00005460BD13068800140F1BE80FFF77AFDDB
:100A0000401B02284FF00300F4D968E730688001EA
:100A10007FF564AFFFF76EFD401B02284FF0030027
:100A2000F4D95CE740F20800C2F20000006844F626
:100A3000D351C1F26201A0FB0101480A019000BF3D
:100A400000BF0198411E002801913FF42FAF00BF65
:100A50000198411E002801913FF428AF00BF019882
:100A6000411E002801913FF421AF00BF0198411EB3
:100A700000280191E4D119E700210160FFF73AFD58
:100A8000054600BF306880077FF50DAFFFF732FDE8
:100A9000401B02284FF00300F4D920E7306A20F011
:100AA00001003062306A20F004003062FFF722FD5E
:100AB000054641F2883700BF306A800720D5FFF72E
:100AC00019FD401BB8424FF00300F5D907E700BFFE
:100AD000306A40F004003062306A40F00100306259
:100AE000FFF708FD054641F2883700BF306A8007EE
:100AF00006D4FFF7FFFC401BB842F7D937E000BF30
:100B0000B8F1000F7FF4D5AEF06920F08050F061AD
:100B1000CFE600BF306820F480303060306820F4C9
:100B200080203060FFF7E6FC054600BF3068800398
:100B30007FF59DAEFFF7DEFC401B64284FF00300FD
:100B4000F4D9CCE6306840F480203060306840F45E
:100B500080303060FFF7CEFC054600BF3068800370
:100B60003FF585AEFFF7C6FC401B6428F6D903208D
:100B700002B0BDE8F08100BF206AB0F5803F05D12A
:100B80007168A26821F40031114371607168626A72
:100B900021F4741111430843706001203866FFF797
:100BA000A9FC0446306880013FF598AEFFF7A2FC2F
:100BB000001B02284FF00300F4D990E6411E0020EC
:100BC000B0EB116F1CBF012070474EF21002CEF245
:100BD000000251604EF62351CEF20001F0230B705B
:100BE0000721906011607047FEE70000FEE70000FB
:100BF000FEE700007047000070470000FFF780BC70
:100C000070470000FEE7000090B040F60004C4F218
:100C10000104FFF783FC2046202100220026FFF775
:100C200063FC204640210022FFF75EFC2046802125
:100C300001220127FFF758FC06AD281D2421FFF7EC
:100C4000C3FA0220069010200B9028460A970D96B2
:100C5000FFF7DAFD20B1EFF3108072B6FEE700BFB8
:100C60000F20CDE9010601A80021CDE90366059614
:100C7000FFF7EAFC20B1EFF3108072B6FEE700BF89
:100C8000002641F218000996C4F202000168002211
:100C900041F0040101600068E02100F004000190CF
:100CA000019820464FF0E008FFF71EFC102006AD2B
:100CB000CDE906060127204629460897FFF700FBE5
:100CC0000220099020462946CDE906870896FFF7BD
:100CD000F7FA40F27004C2F2000400BF412000F0B5
:100CE00041FA4FF4FA60FFF7D7FA00F065F9207087
:100CF0004FF4FA60FFF7D0FA422000F033FA4FF4D5
:100D0000FA60FFF7C9FA00F057F920704FF4FA6063
:100D1000FFF7C2FA432000F025FA4FF4FA60FFF71C
:100D2000BBFA00F049F920704FF4FA60FFF7B4FA0B
:100D3000442000F017FA4FF4FA60FFF7ADFA00F024
:100D40003BF920704FF4FA60FFF7A6FA452000F057
:100D500009FA4FF4FA60FFF79FFA00F02DF92070BE
:100D60004FF4FA60FFF798FA462000F0FBF94FF4D1
:100D7000FA60FFF791FA00F01FF920704FF4FA6063
:100D8000FFF78AFA472000F0EDF94FF4FA60FFF719
:100D900083FA00F011F920704FF4FA60FFF77CFA43
:100DA000482000F0DFF94FF4FA60FFF775FA00F021
:100DB00003F920704FF4FA60FFF76EFA492000F053
:100DC000D1F94FF4FA60FFF767FA00F0F5F82070F8
:100DD0004FF4FA60FFF760FA4A2000F0C3F94FF4CD
:100DE000FA60FFF759FA00F0E7F820704FF4FA6064
:100DF000FFF752FA4B2000F0B5F94FF4FA60FFF715
:100E00004BFA00F0D9F820704FF4FA60FFF744FA7B
:100E10004C2000F0A7F94FF4FA60FFF73DFA00F01C
:100E2000CBF820704FF4FA60FFF736FA4D2000F04F
:100E300099F94FF4FA60FFF72FFA00F0BDF820702F
:100E40004FF4FA60FFF728FA4E2000F08BF94FF4C8
:100E5000FA60FFF721FA00F0AFF820704FF4FA6063
:100E6000FFF71AFA4F2000F07DF94FF4FA60FFF710
:100E700013FA00F0A1F820704FF4FA60FFF70CFAB3
:100E8000502000F06FF94FF4FA60FFF705FA00F018
:100E900093F820704FF4FA60FFF7FEF9512000F04C
:100EA00061F94FF4FA60FFF7F7F900F085F8207068
:100EB0004FF4FA60FFF7F0F9522000F053F94FF4C5
:100EC000FA60FFF7E9F900F077F820704FF4FA6064
:100ED000FFF7E2F9532000F045F94FF4FA60FFF70D
:100EE000DBF900F069F820704FF4FA60FFF7D4F9ED
:100EF000542000F037F94FF4FA60FFF7CDF900F015
:100F00005BF820704FF4FA60FFF7C6F9552000F047
:100F100029F94FF4FA60FFF7BFF900F04DF820709F
:100F20004FF4FA60FFF7B8F9562000F01BF94FF4C0
:100F3000FA60FFF7B1F900F03FF820704FF4FA6063
:100F4000FFF7AAF9572000F00DF94FF4FA60FFF708
:100F5000A3F900F031F820704FF4FA60FFF79CF924
:100F6000582000F0FFF84FF4FA60FFF795F900F011
:100F700023F820704FF4FA60FFF78EF9592000F043
:100F8000F1F84FF4FA60FFF787F900F015F82070D8
:100F90004FF4FA60FFF780F95A2000F0E3F84FF4BD
:100FA000FA60FFF779F900F007F820704FF4FA6063
:100FB000FFF772F992E6000070B540F60004C4F243
:100FC0000104204680210022FFF78EFA20464021AE
:100FD0000122FFF789FA0A2000BFFFF75DF92046DA
:100FE00040210022FFF780FA0A2000BFFFF754F9E2
:100FF00020461021FFF772FA0546204640210122C3
:10100000FFF772FA0A2000BFFFF746F92046402199
:101010000022FFF769FA0A2000BFFFF73DF92046DA
:101020001021FFF75BFA0646204640210122FFF718
:101030005BFA0A2000BFFFF72FF92046402100226B
:10104000FFF752FA0A2000BFFFF726F9A80040EA8E
:10105000460520461021FFF741FA40EA05062046E2
:1010600040210122FFF740FA0A2000BFFFF714F9E0
:10107000204640210022FFF737FA0A2000BFFFF781
:101080000BF920461021FFF729FA0546204640219A
:101090000122FFF729FA0A2000BFFFF7FDF82046DA
:1010A00040210022FFF720FA0A2000BFFFF7F4F8E2
:1010B000B00040EA450520461021FFF70FFA40EA4C
:1010C0000506204640210122FFF70EFA0A2000BF44
:1010D000FFF7E2F8204640210022FFF705FA0A2038
:1010E00000BFFFF7D9F820461021FFF7F7F90546B2
:1010F000204640210122FFF7F7F90A2000BFFFF741
:10110000CBF8204640210022FFF7EEF90A2000BF6D
:10111000FFF7C2F8B00040EA450520461021FFF76E
:10112000DDF90543204640210122FFF7DDF90A20C1
:1011300000BFFFF7B1F8204640210022FFF7D4F9A5
:101140000A2000BFFFF7A8F820461021FFF7C6F9D4
:1011500040EA4505204680210122FFF7C5F9E8B2A3
:1011600070BD0000B0B540F60004C4F201040546AD
:10117000204680210022FFF7B7F9EA092046202106
:10118000FFF7B2F9204640210122FFF7ADF90A200E
:1011900000BFFFF781F8204640210022FFF7A4F9A5
:1011A000C5F380122046202100BFFFF79DF920469D
:1011B00040210122FFF798F90A2000BFFFF76CF8E1
:1011C000204640210022FFF78FF9C5F34012204648
:1011D000202100BFFFF788F9204640210122FFF7B8
:1011E00083F90A2000BFFFF757F82046402100226C
:1011F000FFF77AF9C5F300122046202100BFFFF760
:1012000073F9204640210122FFF76EF90A2000BF42
:10121000FFF742F8204640210022FFF765F9C5F3A9
:10122000C0022046202100BFFFF75EF92046402182
:101230000122FFF759F90A2000BFFFF72DF82046D9
:1012400040210022FFF750F9C5F3800220462021FB
:1012500000BFFFF749F9204640210122FFF744F97A
:101260000A2000BFFFF718F8204640210022FFF7B0
:101270003BF9C5F340022046202100BFFFF734F9B7
:10128000204640210122FFF72FF90A2000BFFFF777
:1012900003F8204640210022FFF726F905F001025D
:1012A0002046202100BFFFF71FF9204640210122E0
:1012B000FFF71AF90A2000BFFEF7EEFF2046402193
:1012C0000022FFF711F920468021012200BFBDE86E
:1012D000B040FFF709B90000000000000000010263
:1012E00003040607080901020203040506070809AA
:1012F0000A0B0C0D0E0F1010181300080000002030
:101300001000000028010008281300081000002029
:101310006806000044010008010000001000000001
:081320000024F40000000000AD
:04000005080000ED02
:00000001FF
